{
  "_format": "hh-sol-artifact-1",
  "contractName": "HerbTraceability",
  "sourceName": "contracts/HerbTraceability.sol",
  "abi": [
    {
      "anonymous": false,
      "inputs": [
        {
          "indexed": false,
          "internalType": "string",
          "name": "batchId",
          "type": "string"
        },
        {
          "indexed": false,
          "internalType": "string",
          "name": "collector",
          "type": "string"
        },
        {
          "indexed": false,
          "internalType": "string",
          "name": "location",
          "type": "string"
        },
        {
          "indexed": false,
          "internalType": "string",
          "name": "species",
          "type": "string"
        },
        {
          "indexed": false,
          "internalType": "string",
          "name": "latitude",
          "type": "string"
        },
        {
          "indexed": false,
          "internalType": "string",
          "name": "longitude",
          "type": "string"
        },
        {
          "indexed": false,
          "internalType": "uint256",
          "name": "timestamp",
          "type": "uint256"
        }
      ],
      "name": "HarvestAdded",
      "type": "event"
    },
    {
      "anonymous": false,
      "inputs": [
        {
          "indexed": false,
          "internalType": "string",
          "name": "batchId",
          "type": "string"
        },
        {
          "indexed": false,
          "internalType": "string",
          "name": "step",
          "type": "string"
        },
        {
          "indexed": false,
          "internalType": "string",
          "name": "details",
          "type": "string"
        },
        {
          "indexed": false,
          "internalType": "uint256",
          "name": "timestamp",
          "type": "uint256"
        }
      ],
      "name": "ProcessingAdded",
      "type": "event"
    },
    {
      "inputs": [
        {
          "internalType": "string",
          "name": "batchId",
          "type": "string"
        },
        {
          "internalType": "string",
          "name": "collector",
          "type": "string"
        },
        {
          "internalType": "string",
          "name": "location",
          "type": "string"
        },
        {
          "internalType": "string",
          "name": "species",
          "type": "string"
        },
        {
          "internalType": "string",
          "name": "latitude",
          "type": "string"
        },
        {
          "internalType": "string",
          "name": "longitude",
          "type": "string"
        }
      ],
      "name": "addHarvestEvent",
      "outputs": [],
      "stateMutability": "nonpayable",
      "type": "function"
    },
    {
      "inputs": [
        {
          "internalType": "string",
          "name": "batchId",
          "type": "string"
        },
        {
          "internalType": "string",
          "name": "step",
          "type": "string"
        },
        {
          "internalType": "string",
          "name": "details",
          "type": "string"
        }
      ],
      "name": "addProcessingEvent",
      "outputs": [],
      "stateMutability": "nonpayable",
      "type": "function"
    },
    {
      "inputs": [
        {
          "internalType": "string",
          "name": "batchId",
          "type": "string"
        }
      ],
      "name": "getHarvestEvent",
      "outputs": [
        {
          "components": [
            {
              "internalType": "string",
              "name": "batchId",
              "type": "string"
            },
            {
              "internalType": "string",
              "name": "collector",
              "type": "string"
            },
            {
              "internalType": "string",
              "name": "location",
              "type": "string"
            },
            {
              "internalType": "string",
              "name": "species",
              "type": "string"
            },
            {
              "internalType": "string",
              "name": "latitude",
              "type": "string"
            },
            {
              "internalType": "string",
              "name": "longitude",
              "type": "string"
            },
            {
              "internalType": "uint256",
              "name": "timestamp",
              "type": "uint256"
            }
          ],
          "internalType": "struct HerbTraceability.HarvestEvent",
          "name": "",
          "type": "tuple"
        }
      ],
      "stateMutability": "view",
      "type": "function"
    },
    {
      "inputs": [
        {
          "internalType": "string",
          "name": "batchId",
          "type": "string"
        }
      ],
      "name": "getProcessingEvents",
      "outputs": [
        {
          "components": [
            {
              "internalType": "string",
              "name": "batchId",
              "type": "string"
            },
            {
              "internalType": "string",
              "name": "step",
              "type": "string"
            },
            {
              "internalType": "string",
              "name": "details",
              "type": "string"
            },
            {
              "internalType": "uint256",
              "name": "timestamp",
              "type": "uint256"
            }
          ],
          "internalType": "struct HerbTraceability.ProcessingEvent[]",
          "name": "",
          "type": "tuple[]"
        }
      ],
      "stateMutability": "view",
      "type": "function"
    },
    {
      "inputs": [
        {
          "internalType": "string",
          "name": "",
          "type": "string"
        }
      ],
      "name": "harvestEvents",
      "outputs": [
        {
          "internalType": "string",
          "name": "batchId",
          "type": "string"
        },
        {
          "internalType": "string",
          "name": "collector",
          "type": "string"
        },
        {
          "internalType": "string",
          "name": "location",
          "type": "string"
        },
        {
          "internalType": "string",
          "name": "species",
          "type": "string"
        },
        {
          "internalType": "string",
          "name": "latitude",
          "type": "string"
        },
        {
          "internalType": "string",
          "name": "longitude",
          "type": "string"
        },
        {
          "internalType": "uint256",
          "name": "timestamp",
          "type": "uint256"
        }
      ],
      "stateMutability": "view",
      "type": "function"
    },
    {
      "inputs": [
        {
          "internalType": "string",
          "name": "",
          "type": "string"
        },
        {
          "internalType": "uint256",
          "name": "",
          "type": "uint256"
        }
      ],
      "name": "processingEvents",
      "outputs": [
        {
          "internalType": "string",
          "name": "batchId",
          "type": "string"
        },
        {
          "internalType": "string",
          "name": "step",
          "type": "string"
        },
        {
          "internalType": "string",
          "name": "details",
          "type": "string"
        },
        {
          "internalType": "uint256",
          "name": "timestamp",
          "type": "uint256"
        }
      ],
      "stateMutability": "view",
      "type": "function"
    }
  ],
  "bytecode": "0x608060405234801561001057600080fd5b50611acc806100206000396000f3fe608060405234801561001057600080fd5b50600436106100625760003560e01c8063148059d4146100675780638f4690361461009d5780639274ed79146100d0578063a1557c5c14610100578063b3663b951461011c578063fe2a87af14610138575b600080fd5b610081600480360381019061007c919061109e565b610168565b604051610094979695949392919061117f565b60405180910390f35b6100b760048036038101906100b29190611244565b6104f0565b6040516100c794939291906112a0565b60405180910390f35b6100ea60048036038101906100e5919061109e565b6106eb565b6040516100f79190611486565b60405180910390f35b61011a600480360381019061011591906114a8565b610928565b005b610136600480360381019061013191906115dd565b610a5b565b005b610152600480360381019061014d919061109e565b610b59565b60405161015f9190611743565b60405180910390f35b6000818051602081018201805184825260208301602085012081835280955050505050506000915090508060000180546101a190611794565b80601f01602080910402602001604051908101604052809291908181526020018280546101cd90611794565b801561021a5780601f106101ef5761010080835404028352916020019161021a565b820191906000526020600020905b8154815290600101906020018083116101fd57829003601f168201915b50505050509080600101805461022f90611794565b80601f016020809104026020016040519081016040528092919081815260200182805461025b90611794565b80156102a85780601f1061027d576101008083540402835291602001916102a8565b820191906000526020600020905b81548152906001019060200180831161028b57829003601f168201915b5050505050908060020180546102bd90611794565b80601f01602080910402602001604051908101604052809291908181526020018280546102e990611794565b80156103365780601f1061030b57610100808354040283529160200191610336565b820191906000526020600020905b81548152906001019060200180831161031957829003601f168201915b50505050509080600301805461034b90611794565b80601f016020809104026020016040519081016040528092919081815260200182805461037790611794565b80156103c45780601f10610399576101008083540402835291602001916103c4565b820191906000526020600020905b8154815290600101906020018083116103a757829003601f168201915b5050505050908060040180546103d990611794565b80601f016020809104026020016040519081016040528092919081815260200182805461040590611794565b80156104525780601f1061042757610100808354040283529160200191610452565b820191906000526020600020905b81548152906001019060200180831161043557829003601f168201915b50505050509080600501805461046790611794565b80601f016020809104026020016040519081016040528092919081815260200182805461049390611794565b80156104e05780601f106104b5576101008083540402835291602001916104e0565b820191906000526020600020905b8154815290600101906020018083116104c357829003601f168201915b5050505050908060060154905087565b600182805160208101820180518482526020830160208501208183528095505050505050818154811061052257600080fd5b90600052602060002090600402016000915091505080600001805461054690611794565b80601f016020809104026020016040519081016040528092919081815260200182805461057290611794565b80156105bf5780601f10610594576101008083540402835291602001916105bf565b820191906000526020600020905b8154815290600101906020018083116105a257829003601f168201915b5050505050908060010180546105d490611794565b80601f016020809104026020016040519081016040528092919081815260200182805461060090611794565b801561064d5780601f106106225761010080835404028352916020019161064d565b820191906000526020600020905b81548152906001019060200180831161063057829003601f168201915b50505050509080600201805461066290611794565b80601f016020809104026020016040519081016040528092919081815260200182805461068e90611794565b80156106db5780601f106106b0576101008083540402835291602001916106db565b820191906000526020600020905b8154815290600101906020018083116106be57829003601f168201915b5050505050908060030154905084565b60606001826040516106fd9190611801565b9081526020016040518091039020805480602002602001604051908101604052809291908181526020016000905b8282101561091d578382906000526020600020906004020160405180608001604052908160008201805461075e90611794565b80601f016020809104026020016040519081016040528092919081815260200182805461078a90611794565b80156107d75780601f106107ac576101008083540402835291602001916107d7565b820191906000526020600020905b8154815290600101906020018083116107ba57829003601f168201915b505050505081526020016001820180546107f090611794565b80601f016020809104026020016040519081016040528092919081815260200182805461081c90611794565b80156108695780601f1061083e57610100808354040283529160200191610869565b820191906000526020600020905b81548152906001019060200180831161084c57829003601f168201915b5050505050815260200160028201805461088290611794565b80601f01602080910402602001604051908101604052809291908181526020018280546108ae90611794565b80156108fb5780601f106108d0576101008083540402835291602001916108fb565b820191906000526020600020905b8154815290600101906020018083116108de57829003601f168201915b505050505081526020016003820154815250508152602001906001019061072b565b505050509050919050565b60006040518060e00160405280888152602001878152602001868152602001858152602001848152602001838152602001428152509050806000886040516109709190611801565b9081526020016040518091039020600082015181600001908161099391906119c4565b5060208201518160010190816109a991906119c4565b5060408201518160020190816109bf91906119c4565b5060608201518160030190816109d591906119c4565b5060808201518160040190816109eb91906119c4565b5060a0820151816005019081610a0191906119c4565b5060c082015181600601559050507fc46a6ccb263af852ed348b85f6b71ce4ac0f09681676d59aa2dc91137194d01387878787878742604051610a4a979695949392919061117f565b60405180910390a150505050505050565b60006040518060800160405280858152602001848152602001838152602001428152509050600184604051610a909190611801565b90815260200160405180910390208190806001815401808255809150506001900390600052602060002090600402016000909190919091506000820151816000019081610add91906119c4565b506020820151816001019081610af391906119c4565b506040820151816002019081610b0991906119c4565b506060820151816003015550507fcc059f76950bf642f907e46a3ae40b603e32c92e7ab302ff6f8493c1893a870c84848442604051610b4b94939291906112a0565b60405180910390a150505050565b610b61610f07565b600082604051610b719190611801565b90815260200160405180910390206040518060e0016040529081600082018054610b9a90611794565b80601f0160208091040260200160405190810160405280929190818152602001828054610bc690611794565b8015610c135780601f10610be857610100808354040283529160200191610c13565b820191906000526020600020905b815481529060010190602001808311610bf657829003601f168201915b50505050508152602001600182018054610c2c90611794565b80601f0160208091040260200160405190810160405280929190818152602001828054610c5890611794565b8015610ca55780601f10610c7a57610100808354040283529160200191610ca5565b820191906000526020600020905b815481529060010190602001808311610c8857829003601f168201915b50505050508152602001600282018054610cbe90611794565b80601f0160208091040260200160405190810160405280929190818152602001828054610cea90611794565b8015610d375780601f10610d0c57610100808354040283529160200191610d37565b820191906000526020600020905b815481529060010190602001808311610d1a57829003601f168201915b50505050508152602001600382018054610d5090611794565b80601f0160208091040260200160405190810160405280929190818152602001828054610d7c90611794565b8015610dc95780601f10610d9e57610100808354040283529160200191610dc9565b820191906000526020600020905b815481529060010190602001808311610dac57829003601f168201915b50505050508152602001600482018054610de290611794565b80601f0160208091040260200160405190810160405280929190818152602001828054610e0e90611794565b8015610e5b5780601f10610e3057610100808354040283529160200191610e5b565b820191906000526020600020905b815481529060010190602001808311610e3e57829003601f168201915b50505050508152602001600582018054610e7490611794565b80601f0160208091040260200160405190810160405280929190818152602001828054610ea090611794565b8015610eed5780601f10610ec257610100808354040283529160200191610eed565b820191906000526020600020905b815481529060010190602001808311610ed057829003601f168201915b505050505081526020016006820154815250509050919050565b6040518060e00160405280606081526020016060815260200160608152602001606081526020016060815260200160608152602001600081525090565b6000604051905090565b600080fd5b600080fd5b600080fd5b600080fd5b6000601f19601f8301169050919050565b7f4e487b7100000000000000000000000000000000000000000000000000000000600052604160045260246000fd5b610fab82610f62565b810181811067ffffffffffffffff82111715610fca57610fc9610f73565b5b80604052505050565b6000610fdd610f44565b9050610fe98282610fa2565b919050565b600067ffffffffffffffff82111561100957611008610f73565b5b61101282610f62565b9050602081019050919050565b82818337600083830152505050565b600061104161103c84610fee565b610fd3565b90508281526020810184848401111561105d5761105c610f5d565b5b61106884828561101f565b509392505050565b600082601f83011261108557611084610f58565b5b813561109584826020860161102e565b91505092915050565b6000602082840312156110b4576110b3610f4e565b5b600082013567ffffffffffffffff8111156110d2576110d1610f53565b5b6110de84828501611070565b91505092915050565b600081519050919050565b600082825260208201905092915050565b60005b83811015611121578082015181840152602081019050611106565b60008484015250505050565b6000611138826110e7565b61114281856110f2565b9350611152818560208601611103565b61115b81610f62565b840191505092915050565b6000819050919050565b61117981611166565b82525050565b600060e0820190508181036000830152611199818a61112d565b905081810360208301526111ad818961112d565b905081810360408301526111c1818861112d565b905081810360608301526111d5818761112d565b905081810360808301526111e9818661112d565b905081810360a08301526111fd818561112d565b905061120c60c0830184611170565b98975050505050505050565b61122181611166565b811461122c57600080fd5b50565b60008135905061123e81611218565b92915050565b6000806040838503121561125b5761125a610f4e565b5b600083013567ffffffffffffffff81111561127957611278610f53565b5b61128585828601611070565b92505060206112968582860161122f565b9150509250929050565b600060808201905081810360008301526112ba818761112d565b905081810360208301526112ce818661112d565b905081810360408301526112e2818561112d565b90506112f16060830184611170565b95945050505050565b600081519050919050565b600082825260208201905092915050565b6000819050602082019050919050565b600082825260208201905092915050565b6000611342826110e7565b61134c8185611326565b935061135c818560208601611103565b61136581610f62565b840191505092915050565b61137981611166565b82525050565b6000608083016000830151848203600086015261139c8282611337565b915050602083015184820360208601526113b68282611337565b915050604083015184820360408601526113d08282611337565b91505060608301516113e56060860182611370565b508091505092915050565b60006113fc838361137f565b905092915050565b6000602082019050919050565b600061141c826112fa565b6114268185611305565b93508360208202850161143885611316565b8060005b85811015611474578484038952815161145585826113f0565b945061146083611404565b925060208a0199505060018101905061143c565b50829750879550505050505092915050565b600060208201905081810360008301526114a08184611411565b905092915050565b60008060008060008060c087890312156114c5576114c4610f4e565b5b600087013567ffffffffffffffff8111156114e3576114e2610f53565b5b6114ef89828a01611070565b965050602087013567ffffffffffffffff8111156115105761150f610f53565b5b61151c89828a01611070565b955050604087013567ffffffffffffffff81111561153d5761153c610f53565b5b61154989828a01611070565b945050606087013567ffffffffffffffff81111561156a57611569610f53565b5b61157689828a01611070565b935050608087013567ffffffffffffffff81111561159757611596610f53565b5b6115a389828a01611070565b92505060a087013567ffffffffffffffff8111156115c4576115c3610f53565b5b6115d089828a01611070565b9150509295509295509295565b6000806000606084860312156115f6576115f5610f4e565b5b600084013567ffffffffffffffff81111561161457611613610f53565b5b61162086828701611070565b935050602084013567ffffffffffffffff81111561164157611640610f53565b5b61164d86828701611070565b925050604084013567ffffffffffffffff81111561166e5761166d610f53565b5b61167a86828701611070565b9150509250925092565b600060e08301600083015184820360008601526116a18282611337565b915050602083015184820360208601526116bb8282611337565b915050604083015184820360408601526116d58282611337565b915050606083015184820360608601526116ef8282611337565b915050608083015184820360808601526117098282611337565b91505060a083015184820360a08601526117238282611337565b91505060c083015161173860c0860182611370565b508091505092915050565b6000602082019050818103600083015261175d8184611684565b905092915050565b7f4e487b7100000000000000000000000000000000000000000000000000000000600052602260045260246000fd5b600060028204905060018216806117ac57607f821691505b6020821081036117bf576117be611765565b5b50919050565b600081905092915050565b60006117db826110e7565b6117e581856117c5565b93506117f5818560208601611103565b80840191505092915050565b600061180d82846117d0565b915081905092915050565b60008190508160005260206000209050919050565b60006020601f8301049050919050565b600082821b905092915050565b60006008830261187a7fffffffffffffffffffffffffffffffffffffffffffffffffffffffffffffffff8261183d565b611884868361183d565b95508019841693508086168417925050509392505050565b6000819050919050565b60006118c16118bc6118b784611166565b61189c565b611166565b9050919050565b6000819050919050565b6118db836118a6565b6118ef6118e7826118c8565b84845461184a565b825550505050565b600090565b6119046118f7565b61190f8184846118d2565b505050565b5b81811015611933576119286000826118fc565b600181019050611915565b5050565b601f8211156119785761194981611818565b6119528461182d565b81016020851015611961578190505b61197561196d8561182d565b830182611914565b50505b505050565b600082821c905092915050565b600061199b6000198460080261197d565b1980831691505092915050565b60006119b4838361198a565b9150826002028217905092915050565b6119cd826110e7565b67ffffffffffffffff8111156119e6576119e5610f73565b5b6119f08254611794565b6119fb828285611937565b600060209050601f831160018114611a2e5760008415611a1c578287015190505b611a2685826119a8565b865550611a8e565b601f198416611a3c86611818565b60005b82811015611a6457848901518255600182019150602085019450602081019050611a3f565b86831015611a815784890151611a7d601f89168261198a565b8355505b6001600288020188555050505b50505050505056fea264697066735822122056f29a6ce9051d9630d3973e081ee7df3dd5f77084a765c08630e93d4882195864736f6c63430008140033",
  "linkReferences": {},
  "deployedLinkReferences": {}
}